{
  "_format": "hh-sol-artifact-1",
  "contractName": "TokenForgeERC20",
  "sourceName": "contracts/Lock.sol",
  "abi": [
    {
      "inputs": [
        {
          "internalType": "address",
          "name": "initialOwner",
          "type": "address"
        },
        {
          "internalType": "string",
          "name": "tokenName",
          "type": "string"
        },
        {
          "internalType": "string",
          "name": "tokenSymbol",
          "type": "string"
        },
        {
          "internalType": "uint256",
          "name": "initialSupply",
          "type": "uint256"
        }
      ],
      "stateMutability": "nonpayable",
      "type": "constructor"
    },
    {
      "inputs": [
        {
          "internalType": "address",
          "name": "spender",
          "type": "address"
        },
        {
          "internalType": "uint256",
          "name": "allowance",
          "type": "uint256"
        },
        {
          "internalType": "uint256",
          "name": "needed",
          "type": "uint256"
        }
      ],
      "name": "ERC20InsufficientAllowance",
      "type": "error"
    },
    {
      "inputs": [
        {
          "internalType": "address",
          "name": "sender",
          "type": "address"
        },
        {
          "internalType": "uint256",
          "name": "balance",
          "type": "uint256"
        },
        {
          "internalType": "uint256",
          "name": "needed",
          "type": "uint256"
        }
      ],
      "name": "ERC20InsufficientBalance",
      "type": "error"
    },
    {
      "inputs": [
        {
          "internalType": "address",
          "name": "approver",
          "type": "address"
        }
      ],
      "name": "ERC20InvalidApprover",
      "type": "error"
    },
    {
      "inputs": [
        {
          "internalType": "address",
          "name": "receiver",
          "type": "address"
        }
      ],
      "name": "ERC20InvalidReceiver",
      "type": "error"
    },
    {
      "inputs": [
        {
          "internalType": "address",
          "name": "sender",
          "type": "address"
        }
      ],
      "name": "ERC20InvalidSender",
      "type": "error"
    },
    {
      "inputs": [
        {
          "internalType": "address",
          "name": "spender",
          "type": "address"
        }
      ],
      "name": "ERC20InvalidSpender",
      "type": "error"
    },
    {
      "inputs": [
        {
          "internalType": "address",
          "name": "owner",
          "type": "address"
        }
      ],
      "name": "OwnableInvalidOwner",
      "type": "error"
    },
    {
      "inputs": [
        {
          "internalType": "address",
          "name": "account",
          "type": "address"
        }
      ],
      "name": "OwnableUnauthorizedAccount",
      "type": "error"
    },
    {
      "anonymous": false,
      "inputs": [
        {
          "indexed": true,
          "internalType": "address",
          "name": "owner",
          "type": "address"
        },
        {
          "indexed": true,
          "internalType": "address",
          "name": "spender",
          "type": "address"
        },
        {
          "indexed": false,
          "internalType": "uint256",
          "name": "value",
          "type": "uint256"
        }
      ],
      "name": "Approval",
      "type": "event"
    },
    {
      "anonymous": false,
      "inputs": [
        {
          "indexed": true,
          "internalType": "address",
          "name": "previousOwner",
          "type": "address"
        },
        {
          "indexed": true,
          "internalType": "address",
          "name": "newOwner",
          "type": "address"
        }
      ],
      "name": "OwnershipTransferred",
      "type": "event"
    },
    {
      "anonymous": false,
      "inputs": [
        {
          "indexed": true,
          "internalType": "address",
          "name": "from",
          "type": "address"
        },
        {
          "indexed": true,
          "internalType": "address",
          "name": "to",
          "type": "address"
        },
        {
          "indexed": false,
          "internalType": "uint256",
          "name": "value",
          "type": "uint256"
        }
      ],
      "name": "Transfer",
      "type": "event"
    },
    {
      "inputs": [
        {
          "internalType": "address",
          "name": "owner",
          "type": "address"
        },
        {
          "internalType": "address",
          "name": "spender",
          "type": "address"
        }
      ],
      "name": "allowance",
      "outputs": [
        {
          "internalType": "uint256",
          "name": "",
          "type": "uint256"
        }
      ],
      "stateMutability": "view",
      "type": "function"
    },
    {
      "inputs": [
        {
          "internalType": "address",
          "name": "spender",
          "type": "address"
        },
        {
          "internalType": "uint256",
          "name": "value",
          "type": "uint256"
        }
      ],
      "name": "approve",
      "outputs": [
        {
          "internalType": "bool",
          "name": "",
          "type": "bool"
        }
      ],
      "stateMutability": "nonpayable",
      "type": "function"
    },
    {
      "inputs": [
        {
          "internalType": "address",
          "name": "account",
          "type": "address"
        }
      ],
      "name": "balanceOf",
      "outputs": [
        {
          "internalType": "uint256",
          "name": "",
          "type": "uint256"
        }
      ],
      "stateMutability": "view",
      "type": "function"
    },
    {
      "inputs": [
        {
          "internalType": "uint256",
          "name": "value",
          "type": "uint256"
        }
      ],
      "name": "burn",
      "outputs": [],
      "stateMutability": "nonpayable",
      "type": "function"
    },
    {
      "inputs": [
        {
          "internalType": "address",
          "name": "account",
          "type": "address"
        },
        {
          "internalType": "uint256",
          "name": "value",
          "type": "uint256"
        }
      ],
      "name": "burnFrom",
      "outputs": [],
      "stateMutability": "nonpayable",
      "type": "function"
    },
    {
      "inputs": [],
      "name": "decimals",
      "outputs": [
        {
          "internalType": "uint8",
          "name": "",
          "type": "uint8"
        }
      ],
      "stateMutability": "view",
      "type": "function"
    },
    {
      "inputs": [],
      "name": "name",
      "outputs": [
        {
          "internalType": "string",
          "name": "",
          "type": "string"
        }
      ],
      "stateMutability": "view",
      "type": "function"
    },
    {
      "inputs": [],
      "name": "owner",
      "outputs": [
        {
          "internalType": "address",
          "name": "",
          "type": "address"
        }
      ],
      "stateMutability": "view",
      "type": "function"
    },
    {
      "inputs": [],
      "name": "renounceOwnership",
      "outputs": [],
      "stateMutability": "nonpayable",
      "type": "function"
    },
    {
      "inputs": [],
      "name": "symbol",
      "outputs": [
        {
          "internalType": "string",
          "name": "",
          "type": "string"
        }
      ],
      "stateMutability": "view",
      "type": "function"
    },
    {
      "inputs": [],
      "name": "totalSupply",
      "outputs": [
        {
          "internalType": "uint256",
          "name": "",
          "type": "uint256"
        }
      ],
      "stateMutability": "view",
      "type": "function"
    },
    {
      "inputs": [
        {
          "internalType": "address",
          "name": "to",
          "type": "address"
        },
        {
          "internalType": "uint256",
          "name": "value",
          "type": "uint256"
        }
      ],
      "name": "transfer",
      "outputs": [
        {
          "internalType": "bool",
          "name": "",
          "type": "bool"
        }
      ],
      "stateMutability": "nonpayable",
      "type": "function"
    },
    {
      "inputs": [
        {
          "internalType": "address",
          "name": "from",
          "type": "address"
        },
        {
          "internalType": "address",
          "name": "to",
          "type": "address"
        },
        {
          "internalType": "uint256",
          "name": "value",
          "type": "uint256"
        }
      ],
      "name": "transferFrom",
      "outputs": [
        {
          "internalType": "bool",
          "name": "",
          "type": "bool"
        }
      ],
      "stateMutability": "nonpayable",
      "type": "function"
    },
    {
      "inputs": [
        {
          "internalType": "address",
          "name": "newOwner",
          "type": "address"
        }
      ],
      "name": "transferOwnership",
      "outputs": [],
      "stateMutability": "nonpayable",
      "type": "function"
    }
  ],
  "bytecode": "0x608060405234801561001057600080fd5b50604051611f10380380611f10833981810160405281019061003291906106a1565b83838381600390816100449190610957565b5080600490816100549190610957565b505050600073ffffffffffffffffffffffffffffffffffffffff168173ffffffffffffffffffffffffffffffffffffffff16036100c95760006040517f1e4fbdf70000000000000000000000000000000000000000000000000000000081526004016100c09190610a38565b60405180910390fd5b6100d88161011c60201b60201c565b5060006100e96101e260201b60201c565b600a6100f59190610bc2565b826101009190610c0d565b905061011233826101eb60201b60201c565b5050505050610ce4565b6000600560009054906101000a900473ffffffffffffffffffffffffffffffffffffffff16905081600560006101000a81548173ffffffffffffffffffffffffffffffffffffffff021916908373ffffffffffffffffffffffffffffffffffffffff1602179055508173ffffffffffffffffffffffffffffffffffffffff168173ffffffffffffffffffffffffffffffffffffffff167f8be0079c531659141344cd1fd0a4f28419497f9722a3daafe3b4186f6b6457e060405160405180910390a35050565b60006012905090565b600073ffffffffffffffffffffffffffffffffffffffff168273ffffffffffffffffffffffffffffffffffffffff160361025d5760006040517fec442f050000000000000000000000000000000000000000000000000000000081526004016102549190610a38565b60405180910390fd5b61026f6000838361027360201b60201c565b5050565b600073ffffffffffffffffffffffffffffffffffffffff168373ffffffffffffffffffffffffffffffffffffffff16036102c55780600260008282546102b99190610c4f565b92505081905550610398565b60008060008573ffffffffffffffffffffffffffffffffffffffff1673ffffffffffffffffffffffffffffffffffffffff16815260200190815260200160002054905081811015610351578381836040517fe450d38c00000000000000000000000000000000000000000000000000000000815260040161034893929190610c92565b60405180910390fd5b8181036000808673ffffffffffffffffffffffffffffffffffffffff1673ffffffffffffffffffffffffffffffffffffffff16815260200190815260200160002081905550505b600073ffffffffffffffffffffffffffffffffffffffff168273ffffffffffffffffffffffffffffffffffffffff16036103e1578060026000828254039250508190555061042e565b806000808473ffffffffffffffffffffffffffffffffffffffff1673ffffffffffffffffffffffffffffffffffffffff168152602001908152602001600020600082825401925050819055505b8173ffffffffffffffffffffffffffffffffffffffff168373ffffffffffffffffffffffffffffffffffffffff167fddf252ad1be2c89b69c2b068fc378daa952ba7f163c4a11628f55a4df523b3ef8360405161048b9190610cc9565b60405180910390a3505050565b6000604051905090565b600080fd5b600080fd5b600073ffffffffffffffffffffffffffffffffffffffff82169050919050565b60006104d7826104ac565b9050919050565b6104e7816104cc565b81146104f257600080fd5b50565b600081519050610504816104de565b92915050565b600080fd5b600080fd5b6000601f19601f8301169050919050565b7f4e487b7100000000000000000000000000000000000000000000000000000000600052604160045260246000fd5b61055d82610514565b810181811067ffffffffffffffff8211171561057c5761057b610525565b5b80604052505050565b600061058f610498565b905061059b8282610554565b919050565b600067ffffffffffffffff8211156105bb576105ba610525565b5b6105c482610514565b9050602081019050919050565b60005b838110156105ef5780820151818401526020810190506105d4565b60008484015250505050565b600061060e610609846105a0565b610585565b90508281526020810184848401111561062a5761062961050f565b5b6106358482856105d1565b509392505050565b600082601f8301126106525761065161050a565b5b81516106628482602086016105fb565b91505092915050565b6000819050919050565b61067e8161066b565b811461068957600080fd5b50565b60008151905061069b81610675565b92915050565b600080600080608085870312156106bb576106ba6104a2565b5b60006106c9878288016104f5565b945050602085015167ffffffffffffffff8111156106ea576106e96104a7565b5b6106f68782880161063d565b935050604085015167ffffffffffffffff811115610717576107166104a7565b5b6107238782880161063d565b92505060606107348782880161068c565b91505092959194509250565b600081519050919050565b7f4e487b7100000000000000000000000000000000000000000000000000000000600052602260045260246000fd5b6000600282049050600182168061079257607f821691505b6020821081036107a5576107a461074b565b5b50919050565b60008190508160005260206000209050919050565b60006020601f8301049050919050565b600082821b905092915050565b60006008830261080d7fffffffffffffffffffffffffffffffffffffffffffffffffffffffffffffffff826107d0565b61081786836107d0565b95508019841693508086168417925050509392505050565b6000819050919050565b600061085461084f61084a8461066b565b61082f565b61066b565b9050919050565b6000819050919050565b61086e83610839565b61088261087a8261085b565b8484546107dd565b825550505050565b600090565b61089761088a565b6108a2818484610865565b505050565b5b818110156108c6576108bb60008261088f565b6001810190506108a8565b5050565b601f82111561090b576108dc816107ab565b6108e5846107c0565b810160208510156108f4578190505b610908610900856107c0565b8301826108a7565b50505b505050565b600082821c905092915050565b600061092e60001984600802610910565b1980831691505092915050565b6000610947838361091d565b9150826002028217905092915050565b61096082610740565b67ffffffffffffffff81111561097957610978610525565b5b610983825461077a565b61098e8282856108ca565b600060209050601f8311600181146109c157600084156109af578287015190505b6109b9858261093b565b865550610a21565b601f1984166109cf866107ab565b60005b828110156109f7578489015182556001820191506020850194506020810190506109d2565b86831015610a145784890151610a10601f89168261091d565b8355505b6001600288020188555050505b505050505050565b610a32816104cc565b82525050565b6000602082019050610a4d6000830184610a29565b92915050565b7f4e487b7100000000000000000000000000000000000000000000000000000000600052601160045260246000fd5b60008160011c9050919050565b6000808291508390505b6001851115610ad957808604811115610ab557610ab4610a53565b5b6001851615610ac45780820291505b8081029050610ad285610a82565b9450610a99565b94509492505050565b600082610af25760019050610bae565b81610b005760009050610bae565b8160018114610b165760028114610b2057610b4f565b6001915050610bae565b60ff841115610b3257610b31610a53565b5b8360020a915084821115610b4957610b48610a53565b5b50610bae565b5060208310610133831016604e8410600b8410161715610b845782820a905083811115610b7f57610b7e610a53565b5b610bae565b610b918484846001610a8f565b92509050818404811115610ba857610ba7610a53565b5b81810290505b9392505050565b600060ff82169050919050565b6000610bcd8261066b565b9150610bd883610bb5565b9250610c057fffffffffffffffffffffffffffffffffffffffffffffffffffffffffffffffff8484610ae2565b905092915050565b6000610c188261066b565b9150610c238361066b565b9250828202610c318161066b565b91508282048414831517610c4857610c47610a53565b5b5092915050565b6000610c5a8261066b565b9150610c658361066b565b9250828201905080821115610c7d57610c7c610a53565b5b92915050565b610c8c8161066b565b82525050565b6000606082019050610ca76000830186610a29565b610cb46020830185610c83565b610cc16040830184610c83565b949350505050565b6000602082019050610cde6000830184610c83565b92915050565b61121d80610cf36000396000f3fe608060405234801561001057600080fd5b50600436106100ea5760003560e01c8063715018a61161008c57806395d89b411161006657806395d89b4114610239578063a9059cbb14610257578063dd62ed3e14610287578063f2fde38b146102b7576100ea565b8063715018a6146101f557806379cc6790146101ff5780638da5cb5b1461021b576100ea565b806323b872dd116100c857806323b872dd1461015b578063313ce5671461018b57806342966c68146101a957806370a08231146101c5576100ea565b806306fdde03146100ef578063095ea7b31461010d57806318160ddd1461013d575b600080fd5b6100f76102d3565b6040516101049190610e44565b60405180910390f35b61012760048036038101906101229190610eff565b610365565b6040516101349190610f5a565b60405180910390f35b610145610388565b6040516101529190610f84565b60405180910390f35b61017560048036038101906101709190610f9f565b610392565b6040516101829190610f5a565b60405180910390f35b6101936103c1565b6040516101a0919061100e565b60405180910390f35b6101c360048036038101906101be9190611029565b6103ca565b005b6101df60048036038101906101da9190611056565b6103de565b6040516101ec9190610f84565b60405180910390f35b6101fd610426565b005b61021960048036038101906102149190610eff565b61043a565b005b61022361045a565b6040516102309190611092565b60405180910390f35b610241610484565b60405161024e9190610e44565b60405180910390f35b610271600480360381019061026c9190610eff565b610516565b60405161027e9190610f5a565b60405180910390f35b6102a1600480360381019061029c91906110ad565b610539565b6040516102ae9190610f84565b60405180910390f35b6102d160048036038101906102cc9190611056565b6105c0565b005b6060600380546102e29061111c565b80601f016020809104026020016040519081016040528092919081815260200182805461030e9061111c565b801561035b5780601f106103305761010080835404028352916020019161035b565b820191906000526020600020905b81548152906001019060200180831161033e57829003601f168201915b5050505050905090565b600080610370610646565b905061037d81858561064e565b600191505092915050565b6000600254905090565b60008061039d610646565b90506103aa858285610660565b6103b58585856106f5565b60019150509392505050565b60006012905090565b6103db6103d5610646565b826107e9565b50565b60008060008373ffffffffffffffffffffffffffffffffffffffff1673ffffffffffffffffffffffffffffffffffffffff168152602001908152602001600020549050919050565b61042e61086b565b61043860006108f2565b565b61044c82610446610646565b83610660565b61045682826107e9565b5050565b6000600560009054906101000a900473ffffffffffffffffffffffffffffffffffffffff16905090565b6060600480546104939061111c565b80601f01602080910402602001604051908101604052809291908181526020018280546104bf9061111c565b801561050c5780601f106104e15761010080835404028352916020019161050c565b820191906000526020600020905b8154815290600101906020018083116104ef57829003601f168201915b5050505050905090565b600080610521610646565b905061052e8185856106f5565b600191505092915050565b6000600160008473ffffffffffffffffffffffffffffffffffffffff1673ffffffffffffffffffffffffffffffffffffffff16815260200190815260200160002060008373ffffffffffffffffffffffffffffffffffffffff1673ffffffffffffffffffffffffffffffffffffffff16815260200190815260200160002054905092915050565b6105c861086b565b600073ffffffffffffffffffffffffffffffffffffffff168173ffffffffffffffffffffffffffffffffffffffff160361063a5760006040517f1e4fbdf70000000000000000000000000000000000000000000000000000000081526004016106319190611092565b60405180910390fd5b610643816108f2565b50565b600033905090565b61065b83838360016109b8565b505050565b600061066c8484610539565b90507fffffffffffffffffffffffffffffffffffffffffffffffffffffffffffffffff8110156106ef57818110156106df578281836040517ffb8f41b20000000000000000000000000000000000000000000000000000000081526004016106d69392919061114d565b60405180910390fd5b6106ee848484840360006109b8565b5b50505050565b600073ffffffffffffffffffffffffffffffffffffffff168373ffffffffffffffffffffffffffffffffffffffff16036107675760006040517f96c6fd1e00000000000000000000000000000000000000000000000000000000815260040161075e9190611092565b60405180910390fd5b600073ffffffffffffffffffffffffffffffffffffffff168273ffffffffffffffffffffffffffffffffffffffff16036107d95760006040517fec442f050000000000000000000000000000000000000000000000000000000081526004016107d09190611092565b60405180910390fd5b6107e4838383610b8f565b505050565b600073ffffffffffffffffffffffffffffffffffffffff168273ffffffffffffffffffffffffffffffffffffffff160361085b5760006040517f96c6fd1e0000000000000000000000000000000000000000000000000000000081526004016108529190611092565b60405180910390fd5b61086782600083610b8f565b5050565b610873610646565b73ffffffffffffffffffffffffffffffffffffffff1661089161045a565b73ffffffffffffffffffffffffffffffffffffffff16146108f0576108b4610646565b6040517f118cdaa70000000000000000000000000000000000000000000000000000000081526004016108e79190611092565b60405180910390fd5b565b6000600560009054906101000a900473ffffffffffffffffffffffffffffffffffffffff16905081600560006101000a81548173ffffffffffffffffffffffffffffffffffffffff021916908373ffffffffffffffffffffffffffffffffffffffff1602179055508173ffffffffffffffffffffffffffffffffffffffff168173ffffffffffffffffffffffffffffffffffffffff167f8be0079c531659141344cd1fd0a4f28419497f9722a3daafe3b4186f6b6457e060405160405180910390a35050565b600073ffffffffffffffffffffffffffffffffffffffff168473ffffffffffffffffffffffffffffffffffffffff1603610a2a5760006040517fe602df05000000000000000000000000000000000000000000000000000000008152600401610a219190611092565b60405180910390fd5b600073ffffffffffffffffffffffffffffffffffffffff168373ffffffffffffffffffffffffffffffffffffffff1603610a9c5760006040517f94280d62000000000000000000000000000000000000000000000000000000008152600401610a939190611092565b60405180910390fd5b81600160008673ffffffffffffffffffffffffffffffffffffffff1673ffffffffffffffffffffffffffffffffffffffff16815260200190815260200160002060008573ffffffffffffffffffffffffffffffffffffffff1673ffffffffffffffffffffffffffffffffffffffff168152602001908152602001600020819055508015610b89578273ffffffffffffffffffffffffffffffffffffffff168473ffffffffffffffffffffffffffffffffffffffff167f8c5be1e5ebec7d5bd14f71427d1e84f3dd0314c0f7b2291e5b200ac8c7c3b92584604051610b809190610f84565b60405180910390a35b50505050565b600073ffffffffffffffffffffffffffffffffffffffff168373ffffffffffffffffffffffffffffffffffffffff1603610be1578060026000828254610bd591906111b3565b92505081905550610cb4565b60008060008573ffffffffffffffffffffffffffffffffffffffff1673ffffffffffffffffffffffffffffffffffffffff16815260200190815260200160002054905081811015610c6d578381836040517fe450d38c000000000000000000000000000000000000000000000000000000008152600401610c649392919061114d565b60405180910390fd5b8181036000808673ffffffffffffffffffffffffffffffffffffffff1673ffffffffffffffffffffffffffffffffffffffff16815260200190815260200160002081905550505b600073ffffffffffffffffffffffffffffffffffffffff168273ffffffffffffffffffffffffffffffffffffffff1603610cfd5780600260008282540392505081905550610d4a565b806000808473ffffffffffffffffffffffffffffffffffffffff1673ffffffffffffffffffffffffffffffffffffffff168152602001908152602001600020600082825401925050819055505b8173ffffffffffffffffffffffffffffffffffffffff168373ffffffffffffffffffffffffffffffffffffffff167fddf252ad1be2c89b69c2b068fc378daa952ba7f163c4a11628f55a4df523b3ef83604051610da79190610f84565b60405180910390a3505050565b600081519050919050565b600082825260208201905092915050565b60005b83811015610dee578082015181840152602081019050610dd3565b60008484015250505050565b6000601f19601f8301169050919050565b6000610e1682610db4565b610e208185610dbf565b9350610e30818560208601610dd0565b610e3981610dfa565b840191505092915050565b60006020820190508181036000830152610e5e8184610e0b565b905092915050565b600080fd5b600073ffffffffffffffffffffffffffffffffffffffff82169050919050565b6000610e9682610e6b565b9050919050565b610ea681610e8b565b8114610eb157600080fd5b50565b600081359050610ec381610e9d565b92915050565b6000819050919050565b610edc81610ec9565b8114610ee757600080fd5b50565b600081359050610ef981610ed3565b92915050565b60008060408385031215610f1657610f15610e66565b5b6000610f2485828601610eb4565b9250506020610f3585828601610eea565b9150509250929050565b60008115159050919050565b610f5481610f3f565b82525050565b6000602082019050610f6f6000830184610f4b565b92915050565b610f7e81610ec9565b82525050565b6000602082019050610f996000830184610f75565b92915050565b600080600060608486031215610fb857610fb7610e66565b5b6000610fc686828701610eb4565b9350506020610fd786828701610eb4565b9250506040610fe886828701610eea565b9150509250925092565b600060ff82169050919050565b61100881610ff2565b82525050565b60006020820190506110236000830184610fff565b92915050565b60006020828403121561103f5761103e610e66565b5b600061104d84828501610eea565b91505092915050565b60006020828403121561106c5761106b610e66565b5b600061107a84828501610eb4565b91505092915050565b61108c81610e8b565b82525050565b60006020820190506110a76000830184611083565b92915050565b600080604083850312156110c4576110c3610e66565b5b60006110d285828601610eb4565b92505060206110e385828601610eb4565b9150509250929050565b7f4e487b7100000000000000000000000000000000000000000000000000000000600052602260045260246000fd5b6000600282049050600182168061113457607f821691505b602082108103611147576111466110ed565b5b50919050565b60006060820190506111626000830186611083565b61116f6020830185610f75565b61117c6040830184610f75565b949350505050565b7f4e487b7100000000000000000000000000000000000000000000000000000000600052601160045260246000fd5b60006111be82610ec9565b91506111c983610ec9565b92508282019050808211156111e1576111e0611184565b5b9291505056fea26469706673582212205c4542bc67dfeee14c88bb9a01c707a56d4a3df6cf433f092291b79f41153ead64736f6c634300081c0033",
  "linkReferences": {},
  "deployedLinkReferences": {}
}